{
  "contractName": "CompoundV",
  "abi": [
    {
      "constant": true,
      "inputs": [],
      "name": "vComptroller",
      "outputs": [
        {
          "name": "",
          "type": "address"
        }
      ],
      "payable": false,
      "stateMutability": "view",
      "type": "function"
    },
    {
      "inputs": [
        {
          "name": "_vComptroller",
          "type": "address"
        }
      ],
      "payable": false,
      "stateMutability": "nonpayable",
      "type": "constructor"
    },
    {
      "constant": true,
      "inputs": [
        {
          "name": "vTokenAddress",
          "type": "address"
        }
      ],
      "name": "getVTokenBalance",
      "outputs": [
        {
          "name": "",
          "type": "uint256"
        }
      ],
      "payable": false,
      "stateMutability": "view",
      "type": "function"
    },
    {
      "constant": false,
      "inputs": [
        {
          "name": "vTokenAddress",
          "type": "address"
        }
      ],
      "name": "getBorrowBalance",
      "outputs": [
        {
          "name": "",
          "type": "uint256"
        }
      ],
      "payable": false,
      "stateMutability": "nonpayable",
      "type": "function"
    }
  ],
  "bytecode": "0x608060405234801561001057600080fd5b506040516020806103a68339810180604052602081101561003057600080fd5b8101908080519060200190929190505050806000806101000a81548173ffffffffffffffffffffffffffffffffffffffff021916908373ffffffffffffffffffffffffffffffffffffffff16021790555050610315806100916000396000f3fe608060405234801561001057600080fd5b50600436106100415760003560e01c80631b117550146100465780633b8d4ab1146100905780637d6af079146100e8575b600080fd5b61004e610140565b604051808273ffffffffffffffffffffffffffffffffffffffff1673ffffffffffffffffffffffffffffffffffffffff16815260200191505060405180910390f35b6100d2600480360360208110156100a657600080fd5b81019080803573ffffffffffffffffffffffffffffffffffffffff169060200190929190505050610165565b6040518082815260200191505060405180910390f35b61012a600480360360208110156100fe57600080fd5b81019080803573ffffffffffffffffffffffffffffffffffffffff169060200190929190505050610226565b6040518082815260200191505060405180910390f35b6000809054906101000a900473ffffffffffffffffffffffffffffffffffffffff1681565b60008173ffffffffffffffffffffffffffffffffffffffff166370a08231306040518263ffffffff1660e01b8152600401808273ffffffffffffffffffffffffffffffffffffffff1673ffffffffffffffffffffffffffffffffffffffff16815260200191505060206040518083038186803b1580156101e457600080fd5b505afa1580156101f8573d6000803e3d6000fd5b505050506040513d602081101561020e57600080fd5b81019080805190602001909291905050509050919050565b60008173ffffffffffffffffffffffffffffffffffffffff166317bfdfbc306040518263ffffffff1660e01b8152600401808273ffffffffffffffffffffffffffffffffffffffff1673ffffffffffffffffffffffffffffffffffffffff168152602001915050602060405180830381600087803b1580156102a757600080fd5b505af11580156102bb573d6000803e3d6000fd5b505050506040513d60208110156102d157600080fd5b8101908080519060200190929190505050905091905056fea165627a7a7230582092eea48f158e77d207cf3ea24764718fa28d14e42e1a6d649b74c2e74382f5930029",
  "source": "pragma solidity ^0.5.7;\n\nimport '@openzeppelin/contracts/token/ERC20/IERC20.sol';\nimport './VTokenInterface.sol';\nimport './VComptrollerInterface.sol';\n\ncontract CompoundV {\n    VComptrollerInterface public vComptroller;\n\n    constructor(\n        address _vComptroller\n    ) public {\n        vComptroller = VComptrollerInterface(_vComptroller);\n    }\n\n    function supply(address vTokenAddress, uint underlyingAmount) internal {\n        VTokenInterface vToken = VTokenInterface(vTokenAddress);\n        address underlyingAddress = vToken.underlying();\n        IERC20(underlyingAddress).approve(vTokenAddress, underlyingAmount);\n        uint result = vToken.mint(underlyingAmount);\n        require(\n            result == 0, \n             'vToken#mint() failed. see Compound ErrorReporter.sol for details');\n    }\n\n    function redeem(address vTokenAddress, uint vTokenAmount) internal {\n        VTokenInterface vToken = VTokenInterface(vTokenAddress);\n        uint result = vToken.redeem(vTokenAmount);\n        require(\n            result == 0, \n             'vToken#redeem() failed. see Compound ErrorReporter.sol for details');        \n    }\n\n    function enterMarket(address vTokenAddress) internal {\n        address[] memory markets = new address[](1);\n        markets[0] = vTokenAddress;\n        uint[] memory results = vComptroller.enterMarkets(markets);\n        require(\n            results[0] == 0, \n             'vToken#enterMarket() failed. see Compound ErrorReporter.sol for details');\n    }\n\n    function borrow(address vTokenAddress, uint borrowAmount) internal {\n        VTokenInterface vToken = VTokenInterface(vTokenAddress);\n        uint result = vToken.borrow(borrowAmount);\n        require(\n            result == 0, \n             'vToken#borrow() failed. see Compound ErrorReporter.sol for details');\n    }\n\n    function repayBorrow(address vTokenAddress, uint underlyingAmount) internal {\n        VTokenInterface vToken = VTokenInterface(vTokenAddress);\n        address underlyingAddress = vToken.underlying();\n        IERC20(underlyingAddress).approve(vTokenAddress, underlyingAmount);\n        uint result = vToken.repayBorrow(underlyingAmount);\n        require(\n            result == 0, \n             'vToken#Borrow() failed. see Compound ErrorReporter.sol for details');\n    }\n\n    function claimCompV() internal {\n        vComptroller.claimCompV(address(this));\n    }\n\n    function getVCompAddress() internal view returns(address) {\n        return vComptroller.getVCompAddress();\n    }\n\n    function getVTokenBalance(address vTokenAddress) public view returns(uint){\n        return VTokenInterface(vTokenAddress).balanceOf(address(this));\n    }\n\n  //No view keyword because borrowBalanceCurrent() can be called in a tx, and Solidity complains if view\n    function getBorrowBalance(address vTokenAddress) public returns(uint){\n        return VTokenInterface(vTokenAddress).borrowBalanceCurrent(address(this));\n    }\n}",
  "sourcePath": "/Users/victorogbebor/Desktop/Projext/Compound-Projexts/YieldFarm/contracts/CompoundV.sol",
  "compiler": {
    "name": "solc",
    "version": "0.5.7+commit.6da8b019.Emscripten.clang"
  },
  "schemaVersion": "3.4.1",
  "updatedAt": "2021-06-22T03:05:05.604Z",
  "devdoc": {
    "methods": {}
  },
  "userdoc": {
    "methods": {}
  }
}