{
  "contractName": "YieldFarming",
  "abi": [
    {
      "constant": true,
      "inputs": [],
      "name": "vComptroller",
      "outputs": [
        {
          "name": "",
          "type": "address"
        }
      ],
      "payable": false,
      "stateMutability": "view",
      "type": "function"
    },
    {
      "constant": true,
      "inputs": [
        {
          "name": "vTokenAddress",
          "type": "address"
        }
      ],
      "name": "getVTokenBalance",
      "outputs": [
        {
          "name": "",
          "type": "uint256"
        }
      ],
      "payable": false,
      "stateMutability": "view",
      "type": "function"
    },
    {
      "constant": false,
      "inputs": [
        {
          "name": "vTokenAddress",
          "type": "address"
        }
      ],
      "name": "getBorrowBalance",
      "outputs": [
        {
          "name": "",
          "type": "uint256"
        }
      ],
      "payable": false,
      "stateMutability": "nonpayable",
      "type": "function"
    },
    {
      "constant": true,
      "inputs": [],
      "name": "owner",
      "outputs": [
        {
          "name": "",
          "type": "address"
        }
      ],
      "payable": false,
      "stateMutability": "view",
      "type": "function"
    },
    {
      "inputs": [
        {
          "name": "_vComptroller",
          "type": "address"
        }
      ],
      "payable": false,
      "stateMutability": "nonpayable",
      "type": "constructor"
    },
    {
      "constant": false,
      "inputs": [
        {
          "name": "_solo",
          "type": "address"
        },
        {
          "name": "_token",
          "type": "address"
        },
        {
          "name": "_vToken",
          "type": "address"
        },
        {
          "name": "_amountProvided",
          "type": "uint256"
        },
        {
          "name": "_amountBorrowed",
          "type": "uint256"
        }
      ],
      "name": "openPosition",
      "outputs": [],
      "payable": false,
      "stateMutability": "nonpayable",
      "type": "function"
    },
    {
      "constant": false,
      "inputs": [
        {
          "name": "_solo",
          "type": "address"
        },
        {
          "name": "_token",
          "type": "address"
        },
        {
          "name": "_vToken",
          "type": "address"
        }
      ],
      "name": "closePosition",
      "outputs": [],
      "payable": false,
      "stateMutability": "nonpayable",
      "type": "function"
    },
    {
      "constant": false,
      "inputs": [
        {
          "name": "sender",
          "type": "address"
        },
        {
          "components": [
            {
              "name": "owner",
              "type": "address"
            },
            {
              "name": "number",
              "type": "uint256"
            }
          ],
          "name": "account",
          "type": "tuple"
        },
        {
          "name": "data",
          "type": "bytes"
        }
      ],
      "name": "callFunction",
      "outputs": [],
      "payable": false,
      "stateMutability": "nonpayable",
      "type": "function"
    }
  ],
  "bytecode": "0x60806040523480156200001157600080fd5b5060405160208062002ce68339810180604052620000339190810190620000d3565b80806000806101000a81548173ffffffffffffffffffffffffffffffffffffffff021916908373ffffffffffffffffffffffffffffffffffffffff1602179055505033600160006101000a81548173ffffffffffffffffffffffffffffffffffffffff021916908373ffffffffffffffffffffffffffffffffffffffff1602179055505062000133565b6000620000cb8251620000ff565b905092915050565b600060208284031215620000e657600080fd5b6000620000f684828501620000bd565b91505092915050565b60006200010c8262000113565b9050919050565b600073ffffffffffffffffffffffffffffffffffffffff82169050919050565b612ba380620001436000396000f3fe608060405234801561001057600080fd5b506004361061007d5760003560e01c80638b4187131161005b5780638b418713146101005780638da5cb5b1461011c578063d2ceba1f1461013a578063d9a9304f146101565761007d565b80631b117550146100825780633b8d4ab1146100a05780637d6af079146100d0575b600080fd5b61008a610172565b60405161009791906126ca565b60405180910390f35b6100ba60048036036100b59190810190611bea565b610197565b6040516100c79190612800565b60405180910390f35b6100ea60048036036100e59190810190611bea565b610229565b6040516100f79190612800565b60405180910390f35b61011a60048036036101159190810190611d02565b6102bd565b005b610124610373565b6040516101319190612596565b60405180910390f35b610154600480360361014f9190810190611c8b565b610399565b005b610170600480360361016b9190810190611c3c565b6104d2565b005b6000809054906101000a900473ffffffffffffffffffffffffffffffffffffffff1681565b60008173ffffffffffffffffffffffffffffffffffffffff166370a08231306040518263ffffffff1660e01b81526004016101d29190612596565b60206040518083038186803b1580156101ea57600080fd5b505afa1580156101fe573d6000803e3d6000fd5b505050506040513d601f19601f820116820180604052506102229190810190611dfc565b9050919050565b60008173ffffffffffffffffffffffffffffffffffffffff166317bfdfbc306040518263ffffffff1660e01b81526004016102649190612596565b602060405180830381600087803b15801561027e57600080fd5b505af1158015610292573d6000803e3d6000fd5b505050506040513d601f19601f820116820180604052506102b69190810190611dfc565b9050919050565b6102c56117e9565b818060200190516102d99190810190611dd3565b9050600060018111156102e857fe5b816040015160018111156102f857fe5b141561033a576103168160200151826080015183606001510161086f565b6103238160200151610a5d565b61033581602001518260800151610beb565b61036d565b61034c81602001518260800151610cc8565b600061035b8260200151610197565b905061036b826020015182610eb6565b505b50505050565b600160009054906101000a900473ffffffffffffffffffffffffffffffffffffffff1681565b600160009054906101000a900473ffffffffffffffffffffffffffffffffffffffff1673ffffffffffffffffffffffffffffffffffffffff163373ffffffffffffffffffffffffffffffffffffffff1614610429576040517f08c379a0000000000000000000000000000000000000000000000000000000008152600401610420906127c5565b60405180910390fd5b8373ffffffffffffffffffffffffffffffffffffffff166323b872dd3330856040518463ffffffff1660e01b8152600401610466939291906125e8565b602060405180830381600087803b15801561048057600080fd5b505af1158015610494573d6000803e3d6000fd5b505050506040513d601f19601f820116820180604052506104b89190810190611daa565b506104cb85858560006002870386610f93565b5050505050565b600160009054906101000a900473ffffffffffffffffffffffffffffffffffffffff1673ffffffffffffffffffffffffffffffffffffffff163373ffffffffffffffffffffffffffffffffffffffff1614610562576040517f08c379a0000000000000000000000000000000000000000000000000000000008152600401610559906127c5565b60405180910390fd5b8173ffffffffffffffffffffffffffffffffffffffff166323b872dd333060026040518463ffffffff1660e01b81526004016105a0939291906125b1565b602060405180830381600087803b1580156105ba57600080fd5b505af11580156105ce573d6000803e3d6000fd5b505050506040513d601f19601f820116820180604052506105f29190810190611daa565b506105fb61123c565b600061060682610229565b90506106188484846001600086610f93565b60006106226112ca565b9050600081905060008173ffffffffffffffffffffffffffffffffffffffff166370a08231306040518263ffffffff1660e01b81526004016106649190612596565b60206040518083038186803b15801561067c57600080fd5b505afa158015610690573d6000803e3d6000fd5b505050506040513d601f19601f820116820180604052506106b49190810190611dfc565b90508173ffffffffffffffffffffffffffffffffffffffff1663a9059cbb33836040518363ffffffff1660e01b81526004016106f192919061261f565b602060405180830381600087803b15801561070b57600080fd5b505af115801561071f573d6000803e3d6000fd5b505050506040513d601f19601f820116820180604052506107439190810190611daa565b50600086905060008173ffffffffffffffffffffffffffffffffffffffff166370a08231306040518263ffffffff1660e01b81526004016107849190612596565b60206040518083038186803b15801561079c57600080fd5b505afa1580156107b0573d6000803e3d6000fd5b505050506040513d601f19601f820116820180604052506107d49190810190611dfc565b90508173ffffffffffffffffffffffffffffffffffffffff1663a9059cbb33836040518363ffffffff1660e01b815260040161081192919061261f565b602060405180830381600087803b15801561082b57600080fd5b505af115801561083f573d6000803e3d6000fd5b505050506040513d601f19601f820116820180604052506108639190810190611daa565b50505050505050505050565b600082905060008173ffffffffffffffffffffffffffffffffffffffff16636f307dc36040518163ffffffff1660e01b815260040160206040518083038186803b1580156108bc57600080fd5b505afa1580156108d0573d6000803e3d6000fd5b505050506040513d601f19601f820116820180604052506108f49190810190611c13565b90508073ffffffffffffffffffffffffffffffffffffffff1663095ea7b385856040518363ffffffff1660e01b8152600401610931929190612648565b602060405180830381600087803b15801561094b57600080fd5b505af115801561095f573d6000803e3d6000fd5b505050506040513d601f19601f820116820180604052506109839190810190611daa565b5060008273ffffffffffffffffffffffffffffffffffffffff1663a0712d68856040518263ffffffff1660e01b81526004016109bf9190612800565b602060405180830381600087803b1580156109d957600080fd5b505af11580156109ed573d6000803e3d6000fd5b505050506040513d601f19601f82011682018060405250610a119190810190611dfc565b905060008114610a56576040517f08c379a0000000000000000000000000000000000000000000000000000000008152600401610a4d90612705565b60405180910390fd5b5050505050565b60606001604051908082528060200260200182016040528015610a8f5781602001602082028038833980820191505090505b5090508181600081518110610aa057fe5b602002602001019073ffffffffffffffffffffffffffffffffffffffff16908173ffffffffffffffffffffffffffffffffffffffff168152505060606000809054906101000a900473ffffffffffffffffffffffffffffffffffffffff1673ffffffffffffffffffffffffffffffffffffffff1663c2998238836040518263ffffffff1660e01b8152600401610b369190612671565b600060405180830381600087803b158015610b5057600080fd5b505af1158015610b64573d6000803e3d6000fd5b505050506040513d6000823e3d601f19601f82011682018060405250610b8d9190810190611d69565b9050600081600081518110610b9e57fe5b602002602001015114610be6576040517f08c379a0000000000000000000000000000000000000000000000000000000008152600401610bdd906126e5565b60405180910390fd5b505050565b600082905060008173ffffffffffffffffffffffffffffffffffffffff1663c5ebeaec846040518263ffffffff1660e01b8152600401610c2b9190612800565b602060405180830381600087803b158015610c4557600080fd5b505af1158015610c59573d6000803e3d6000fd5b505050506040513d601f19601f82011682018060405250610c7d9190810190611dfc565b905060008114610cc2576040517f08c379a0000000000000000000000000000000000000000000000000000000008152600401610cb990612765565b60405180910390fd5b50505050565b600082905060008173ffffffffffffffffffffffffffffffffffffffff16636f307dc36040518163ffffffff1660e01b815260040160206040518083038186803b158015610d1557600080fd5b505afa158015610d29573d6000803e3d6000fd5b505050506040513d601f19601f82011682018060405250610d4d9190810190611c13565b90508073ffffffffffffffffffffffffffffffffffffffff1663095ea7b385856040518363ffffffff1660e01b8152600401610d8a929190612648565b602060405180830381600087803b158015610da457600080fd5b505af1158015610db8573d6000803e3d6000fd5b505050506040513d601f19601f82011682018060405250610ddc9190810190611daa565b5060008273ffffffffffffffffffffffffffffffffffffffff16630e752702856040518263ffffffff1660e01b8152600401610e189190612800565b602060405180830381600087803b158015610e3257600080fd5b505af1158015610e46573d6000803e3d6000fd5b505050506040513d601f19601f82011682018060405250610e6a9190810190611dfc565b905060008114610eaf576040517f08c379a0000000000000000000000000000000000000000000000000000000008152600401610ea690612745565b60405180910390fd5b5050505050565b600082905060008173ffffffffffffffffffffffffffffffffffffffff1663db006a75846040518263ffffffff1660e01b8152600401610ef69190612800565b602060405180830381600087803b158015610f1057600080fd5b505af1158015610f24573d6000803e3d6000fd5b505050506040513d601f19601f82011682018060405250610f489190810190611dfc565b905060008114610f8d576040517f08c379a0000000000000000000000000000000000000000000000000000000008152600401610f8490612785565b60405180910390fd5b50505050565b60008690506000610fa48888611370565b90506000610fb184611522565b90508773ffffffffffffffffffffffffffffffffffffffff1663095ea7b38a836040518363ffffffff1660e01b8152600401610fee929190612648565b602060405180830381600087803b15801561100857600080fd5b505af115801561101c573d6000803e3d6000fd5b505050506040513d601f19601f820116820180604052506110409190810190611daa565b506060600360405190808252806020026020018201604052801561107e57816020015b61106b61184f565b8152602001906001900390816110635790505b50905061108b838661153f565b8160008151811061109857fe5b60200260200101819052506111286040518060a001604052808b73ffffffffffffffffffffffffffffffffffffffff1681526020018a73ffffffffffffffffffffffffffffffffffffffff1681526020018960018111156110f557fe5b81526020018881526020018781525060405160200161111491906127e5565b6040516020818303038152906040526115f8565b8160018151811061113557fe5b602002602001018190525061114a83836116a2565b8160028151811061115757fe5b60200260200101819052506060600160405190808252806020026020018201604052801561119f57816020015b61118c6118bb565b8152602001906001900390816111845790505b5090506111aa61175b565b816000815181106111b757fe5b60200260200101819052508473ffffffffffffffffffffffffffffffffffffffff1663a67a6a4582846040518363ffffffff1660e01b81526004016111fd929190612693565b600060405180830381600087803b15801561121757600080fd5b505af115801561122b573d6000803e3d6000fd5b505050505050505050505050505050565b6000809054906101000a900473ffffffffffffffffffffffffffffffffffffffff1673ffffffffffffffffffffffffffffffffffffffff166367701171306040518263ffffffff1660e01b81526004016112969190612596565b600060405180830381600087803b1580156112b057600080fd5b505af11580156112c4573d6000803e3d6000fd5b50505050565b60008060009054906101000a900473ffffffffffffffffffffffffffffffffffffffff1673ffffffffffffffffffffffffffffffffffffffff166395eb92d96040518163ffffffff1660e01b815260040160206040518083038186803b15801561133357600080fd5b505afa158015611347573d6000803e3d6000fd5b505050506040513d601f19601f8201168201806040525061136b9190810190611c13565b905090565b60008083905060008173ffffffffffffffffffffffffffffffffffffffff1663295c39a56040518163ffffffff1660e01b815260040160206040518083038186803b1580156113be57600080fd5b505afa1580156113d2573d6000803e3d6000fd5b505050506040513d601f19601f820116820180604052506113f69190810190611dfc565b9050600080600090505b828110156114e0578373ffffffffffffffffffffffffffffffffffffffff1663062bd3e9826040518263ffffffff1660e01b81526004016114419190612800565b60206040518083038186803b15801561145957600080fd5b505afa15801561146d573d6000803e3d6000fd5b505050506040513d601f19601f820116820180604052506114919190810190611c13565b91508573ffffffffffffffffffffffffffffffffffffffff168273ffffffffffffffffffffffffffffffffffffffff1614156114d3578094505050505061151c565b8080600101915050611400565b506040517f08c379a0000000000000000000000000000000000000000000000000000000008152600401611513906127a5565b60405180910390fd5b92915050565b600061153860028361179490919063ffffffff16565b9050919050565b6115476118eb565b6040518061010001604052806001600881111561156057fe5b81526020016000815260200160405180608001604052806000151581526020016000600181111561158d57fe5b81526020016000600181111561159f57fe5b8152602001858152508152602001848152602001600081526020013073ffffffffffffffffffffffffffffffffffffffff1681526020016000815260200160405180602001604052806000815250815250905092915050565b6116006118eb565b60405180610100016040528060088081111561161857fe5b81526020016000815260200160405180608001604052806000151581526020016000600181111561164557fe5b81526020016000600181111561165757fe5b81526020016000815250815260200160008152602001600081526020013073ffffffffffffffffffffffffffffffffffffffff16815260200160008152602001838152509050919050565b6116aa6118eb565b604051806101000160405280600060088111156116c357fe5b8152602001600081526020016040518060800160405280600115158152602001600060018111156116f057fe5b81526020016000600181111561170257fe5b8152602001858152508152602001848152602001600081526020013073ffffffffffffffffffffffffffffffffffffffff1681526020016000815260200160405180602001604052806000815250815250905092915050565b611763611957565b60405180604001604052803073ffffffffffffffffffffffffffffffffffffffff1681526020016001815250905090565b6000808284019050838110156117df576040517f08c379a00000000000000000000000000000000000000000000000000000000081526004016117d690612725565b60405180910390fd5b8091505092915050565b6040518060a00160405280600073ffffffffffffffffffffffffffffffffffffffff168152602001600073ffffffffffffffffffffffffffffffffffffffff1681526020016000600181111561183b57fe5b815260200160008152602001600081525090565b6040518061016001604052806000600881111561186857fe5b81526020016000815260200161187c611987565b81526020016000815260200160008152602001600073ffffffffffffffffffffffffffffffffffffffff16815260200160008152602001606081525090565b6040518060400160405280600073ffffffffffffffffffffffffffffffffffffffff168152602001600081525090565b6040518061016001604052806000600881111561190457fe5b815260200160008152602001611918611987565b81526020016000815260200160008152602001600073ffffffffffffffffffffffffffffffffffffffff16815260200160008152602001606081525090565b6040518060400160405280600073ffffffffffffffffffffffffffffffffffffffff168152602001600081525090565b6040518060800160405280600015158152602001600060018111156119a857fe5b8152602001600060018111156119ba57fe5b8152602001600081525090565b60006119d38235612a03565b905092915050565b60006119e78251612a03565b905092915050565b600082601f830112611a0057600080fd5b8151611a13611a0e82612848565b61281b565b91508181835260208401935060208101905083856020840282011115611a3857600080fd5b60005b83811015611a685781611a4e8882611bd6565b845260208401935060208301925050600181019050611a3b565b5050505092915050565b6000611a7e8251612a15565b905092915050565b600082601f830112611a9757600080fd5b8135611aaa611aa582612870565b61281b565b91508082526020830160208301858383011115611ac657600080fd5b611ad1838284612b16565b50505092915050565b6000611ae68251612a21565b905092915050565b600060408284031215611b0057600080fd5b611b0a604061281b565b90506000611b1a848285016119c7565b6000830152506020611b2e84828501611bc2565b60208301525092915050565b600060a08284031215611b4c57600080fd5b611b5660a061281b565b90506000611b66848285016119db565b6000830152506020611b7a848285016119db565b6020830152506040611b8e84828501611ada565b6040830152506060611ba284828501611bd6565b6060830152506080611bb684828501611bd6565b60808301525092915050565b6000611bce8235612a58565b905092915050565b6000611be28251612a58565b905092915050565b600060208284031215611bfc57600080fd5b6000611c0a848285016119c7565b91505092915050565b600060208284031215611c2557600080fd5b6000611c33848285016119db565b91505092915050565b600080600060608486031215611c5157600080fd5b6000611c5f868287016119c7565b9350506020611c70868287016119c7565b9250506040611c81868287016119c7565b9150509250925092565b600080600080600060a08688031215611ca357600080fd5b6000611cb1888289016119c7565b9550506020611cc2888289016119c7565b9450506040611cd3888289016119c7565b9350506060611ce488828901611bc2565b9250506080611cf588828901611bc2565b9150509295509295909350565b600080600060808486031215611d1757600080fd5b6000611d25868287016119c7565b9350506020611d3686828701611aee565b925050606084013567ffffffffffffffff811115611d5357600080fd5b611d5f86828701611a86565b9150509250925092565b600060208284031215611d7b57600080fd5b600082015167ffffffffffffffff811115611d9557600080fd5b611da1848285016119ef565b91505092915050565b600060208284031215611dbc57600080fd5b6000611dca84828501611a72565b91505092915050565b600060a08284031215611de557600080fd5b6000611df384828501611b3a565b91505092915050565b600060208284031215611e0e57600080fd5b6000611e1c84828501611bd6565b91505092915050565b6000611e318383611e78565b60208301905092915050565b6000611e4983836123d9565b905092915050565b6000611e5d83836124e1565b60408301905092915050565b611e7281612a62565b82525050565b611e818161296b565b82525050565b611e908161296b565b82525050565b6000611ea1826128c3565b611eab8185612916565b9350611eb68361289c565b60005b82811015611ee457611ecc868351611e25565b9550611ed7826128ef565b9150600181019050611eb9565b50849250505092915050565b6000611efb826128ce565b611f058185612927565b935083602082028501611f17856128a9565b60005b84811015611f50578383038852611f32838351611e3d565b9250611f3d826128fc565b9150602088019750600181019050611f1a565b508196508694505050505092915050565b6000611f6c826128d9565b611f768185612938565b9350611f81836128b6565b60005b82811015611faf57611f97868351611e51565b9550611fa282612909565b9150600181019050611f84565b50849250505092915050565b611fc48161297d565b82525050565b6000611fd5826128e4565b611fdf8185612949565b9350611fef818560208601612b25565b611ff881612b58565b840191505092915050565b61200c81612a74565b82525050565b61201b81612a98565b82525050565b61202a81612aaa565b82525050565b61203981612abc565b82525050565b61204881612ace565b82525050565b61205781612ae0565b82525050565b600061206a60478361295a565b91507f76546f6b656e23656e7465724d61726b65742829206661696c65642e2073656560008301527f20436f6d706f756e64204572726f725265706f727465722e736f6c20666f722060208301527f64657461696c73000000000000000000000000000000000000000000000000006040830152606082019050919050565b60006120f660408361295a565b91507f76546f6b656e236d696e742829206661696c65642e2073656520436f6d706f7560008301527f6e64204572726f725265706f727465722e736f6c20666f722064657461696c736020830152604082019050919050565b600061215c601b8361295a565b91507f536166654d6174683a206164646974696f6e206f766572666c6f7700000000006000830152602082019050919050565b600061219c60428361295a565b91507f76546f6b656e23426f72726f772829206661696c65642e2073656520436f6d7060008301527f6f756e64204572726f725265706f727465722e736f6c20666f7220646574616960208301527f6c730000000000000000000000000000000000000000000000000000000000006040830152606082019050919050565b600061222860428361295a565b91507f76546f6b656e23626f72726f772829206661696c65642e2073656520436f6d7060008301527f6f756e64204572726f725265706f727465722e736f6c20666f7220646574616960208301527f6c730000000000000000000000000000000000000000000000000000000000006040830152606082019050919050565b60006122b460428361295a565b91507f76546f6b656e2372656465656d2829206661696c65642e2073656520436f6d7060008301527f6f756e64204572726f725265706f727465722e736f6c20666f7220646574616960208301527f6c730000000000000000000000000000000000000000000000000000000000006040830152606082019050919050565b600061234060248361295a565b91507f4e6f206d61726b6574496420666f756e6420666f722070726f7669646564207460008301527f6f6b656e000000000000000000000000000000000000000000000000000000006020830152604082019050919050565b60006123a6600a8361295a565b91507f6f6e6c79206f776e6572000000000000000000000000000000000000000000006000830152602082019050919050565b6000610160830160008301516123f26000860182612012565b5060208301516124056020860182612578565b506040830151612418604086018261248c565b50606083015161242b60c0860182612578565b50608083015161243e60e0860182612578565b5060a0830151612452610100860182611e78565b5060c0830151612466610120860182612578565b5060e083015184820361014086015261247f8282611fca565b9150508091505092915050565b6080820160008201516124a26000850182611fbb565b5060208201516124b56020850182612021565b5060408201516124c86040850182612030565b5060608201516124db6060850182612578565b50505050565b6040820160008201516124f76000850182611e78565b50602082015161250a6020850182612578565b50505050565b60a0820160008201516125266000850182611e78565b5060208201516125396020850182611e78565b50604082015161254c604085018261203f565b50606082015161255f6060850182612578565b5060808201516125726080850182612578565b50505050565b612581816129f9565b82525050565b612590816129f9565b82525050565b60006020820190506125ab6000830184611e87565b92915050565b60006060820190506125c66000830186611e69565b6125d36020830185611e87565b6125e0604083018461204e565b949350505050565b60006060820190506125fd6000830186611e69565b61260a6020830185611e87565b6126176040830184612587565b949350505050565b60006040820190506126346000830185611e69565b6126416020830184612587565b9392505050565b600060408201905061265d6000830185611e87565b61266a6020830184612587565b9392505050565b6000602082019050818103600083015261268b8184611e96565b905092915050565b600060408201905081810360008301526126ad8185611f61565b905081810360208301526126c18184611ef0565b90509392505050565b60006020820190506126df6000830184612003565b92915050565b600060208201905081810360008301526126fe8161205d565b9050919050565b6000602082019050818103600083015261271e816120e9565b9050919050565b6000602082019050818103600083015261273e8161214f565b9050919050565b6000602082019050818103600083015261275e8161218f565b9050919050565b6000602082019050818103600083015261277e8161221b565b9050919050565b6000602082019050818103600083015261279e816122a7565b9050919050565b600060208201905081810360008301526127be81612333565b9050919050565b600060208201905081810360008301526127de81612399565b9050919050565b600060a0820190506127fa6000830184612510565b92915050565b60006020820190506128156000830184612587565b92915050565b6000604051905081810181811067ffffffffffffffff8211171561283e57600080fd5b8060405250919050565b600067ffffffffffffffff82111561285f57600080fd5b602082029050602081019050919050565b600067ffffffffffffffff82111561288757600080fd5b601f19601f8301169050602081019050919050565b6000602082019050919050565b6000602082019050919050565b6000602082019050919050565b600081519050919050565b600081519050919050565b600081519050919050565b600081519050919050565b6000602082019050919050565b6000602082019050919050565b6000602082019050919050565b600082825260208201905092915050565b600082825260208201905092915050565b600082825260208201905092915050565b600082825260208201905092915050565b600082825260208201905092915050565b6000612976826129d9565b9050919050565b60008115159050919050565b60006009821061299557fe5b819050919050565b6000600282106129a957fe5b819050919050565b6000600282106129bd57fe5b819050919050565b6000600282106129d157fe5b819050919050565b600073ffffffffffffffffffffffffffffffffffffffff82169050919050565b6000819050919050565b6000612a0e82612a38565b9050919050565b60008115159050919050565b600060028210612a3057600080fd5b819050919050565b600073ffffffffffffffffffffffffffffffffffffffff82169050919050565b6000819050919050565b6000612a6d82612af2565b9050919050565b6000612a7f82612a86565b9050919050565b6000612a91826129d9565b9050919050565b6000612aa382612989565b9050919050565b6000612ab58261299d565b9050919050565b6000612ac7826129b1565b9050919050565b6000612ad9826129c5565b9050919050565b6000612aeb826129f9565b9050919050565b6000612afd82612b04565b9050919050565b6000612b0f826129d9565b9050919050565b82818337600083830152505050565b60005b83811015612b43578082015181840152602081019050612b28565b83811115612b52576000848401525b50505050565b6000601f19601f830116905091905056fea265627a7a7230582071b9a23d417249e72ecd7460d70d190209d4961f2d475ad82df0eba7f7bf1f1e6c6578706572696d656e74616cf50037",
  "source": "pragma solidity ^0.5.7;\npragma experimental ABIEncoderV2;\n\nimport \"@studydefi/money-legos/dydx/contracts/DydxFlashloanBase.sol\";\nimport \"@studydefi/money-legos/dydx/contracts/ICallee.sol\";\nimport \"@openzeppelin/contracts/token/ERC20/IERC20.sol\";\nimport './CompoundV.sol';\n\ncontract YieldFarming is ICallee, DydxFlashloanBase, CompoundV {\n    enum Direction { Deposit, Withdraw }\n    struct Operation {\n        address token;\n        address vToken;\n        Direction direction;\n        uint amountProvided;\n        uint amountBorrowed;\n    }\n    address public owner;\n\n    constructor(address _vComptroller) CompoundV(_vComptroller) public {\n        owner = msg.sender;\n    }\n\n    function openPosition(address _solo, address _token, address _vToken, uint _amountProvided, uint _amountBorrowed) external {\n        require(msg.sender == owner, 'only owner');\n        IERC20(_token).transferFrom(msg.sender, address(this), _amountProvided);\n        // 2 wei is used to pay for flashloan\n        _initiateFlashloan(_solo, _token, _vToken, Direction.Deposit, _amountProvided - 2, _amountBorrowed);\n    }\n\n    function closePosition(address _solo, address _token, address _vToken) external {\n        require(msg.sender == owner, 'only owner');\n        IERC20(_token).transferFrom(msg.sender, address(this), 2); // 2 wei is used to pay for flashloan\n        claimCompV();\n        uint borrowBalance = getBorrowBalance(_vToken);\n        _initiateFlashloan(_solo, _token, _vToken, Direction.Withdraw, 0, borrowBalance);\n\n        // vComp\n        address vCompAddress = getVCompAddress();\n        IERC20 vComp = IERC20(vCompAddress);\n        uint vCompBalance = vComp.balanceOf(address(this));\n        vComp.transfer(msg.sender, vCompBalance);\n\n        // token\n        IERC20 token = IERC20(_token);\n        uint tokenBalance = token.balanceOf(address(this));\n        token.transfer(msg.sender, tokenBalance);\n    }\n\n    function callFunction(address sender, Account.Info memory account, bytes memory data) public {\n        Operation memory operation = abi.decode(data, (Operation));\n\n        if(operation.direction == Direction.Deposit) {\n            supply(operation.vToken, operation.amountProvided + operation.amountBorrowed);\n            enterMarket(operation.vToken);\n            borrow(operation.vToken, operation.amountBorrowed);\n        } else {\n            repayBorrow(operation.vToken, operation.amountBorrowed);\n            uint vTokenBalance = getVTokenBalance(operation.vToken);\n            redeem(operation.vToken, vTokenBalance);\n        } \n    }\n    function _initiateFlashloan(\n        address _solo, \n        address _token, \n        address _vToken, \n        Direction _direction,\n        uint _amountProvided, \n        uint _amountBorrowed\n    )\n        internal\n    {\n        ISoloMargin solo = ISoloMargin(_solo);\n\n        // Get marketId from token address\n        uint256 marketId = _getMarketIdFromTokenAddress(_solo, _token);\n\n        // Calculate repay amount (_amount + (2 wei))\n        // Approve transfer from\n        uint256 repayAmount = _getRepaymentAmountInternal(_amountBorrowed);\n        IERC20(_token).approve(_solo, repayAmount);\n\n        // 1. Withdraw $\n        // 2. Call callFunction(...)\n        // 3. Deposit back $\n        Actions.ActionArgs[] memory operations = new Actions.ActionArgs[](3);\n\n        operations[0] = _getWithdrawAction(marketId, _amountBorrowed);\n        operations[1] = _getCallAction(\n            // Encode MyCustomData for callFunction\n            abi.encode(Operation({\n            token: _token, \n            vToken: _vToken, \n            direction: _direction,\n            amountProvided: _amountProvided, \n            amountBorrowed: _amountBorrowed\n            }))\n        );\n        operations[2] = _getDepositAction(marketId, repayAmount);\n\n        Account.Info[] memory accountInfos = new Account.Info[](1);\n        accountInfos[0] = _getAccountInfo();\n\n        solo.operate(accountInfos, operations);\n    }\n}\n",
  "sourcePath": "/Users/victorogbebor/Desktop/Projext/Compound-Projexts/YieldFarm/contracts/YieldFarming.sol",
  "compiler": {
    "name": "solc",
    "version": "0.5.7+commit.6da8b019.Emscripten.clang"
  },
  "schemaVersion": "3.4.1",
  "updatedAt": "2021-06-22T03:05:05.609Z",
  "devdoc": {
    "methods": {}
  },
  "userdoc": {
    "methods": {}
  }
}